:020000040800F2
:100000005860002055020008C9150008DD140008DA
:10001000C515000827080008A11D00080000000001
:100020000000000000000000000000009D0100082A
:100030009108000800000000F101000815160008F2
:100040006F0200086F0200086F0200086F020008CC
:100050006F0200086F0200086F0200086F020008BC
:100060006F0200086F0200086F0200086F020008AC
:100070006F0200086F0200086F0200086F0200089C
:100080006F0200086F0200086F0200086F0200088C
:100090006F0200086F0200086F0200086F0200087C
:1000A0006F0200086F0200086F0200086F0200086C
:1000B000111800086F0200086F0200086F020008A4
:1000C0006F0200086F0200086F0200086F0200084C
:1000D0006F020008C91B00086F0200086F020008C9
:1000E0006F0200086F0200086F0200086F0200082C
:1000F0006F0200086F0200086F0200086F0200081C
:100100006F0200086F0200086F0200086F0200080B
:100110006F0200086F0200086F0200086F020008FB
:100120006F0200086F0200086F0200086F020008EB
:100130006F0200086F0200086F0200086F020008DB
:100140006F0200086F0200086F0200086F020008CB
:100150006F0200086F0200086F0200086F020008BB
:100160006F0200086F0200086F0200086F020008AB
:100170006F0200086F0200086F0200080000000014
:100180006F0200086F020008DFF80CD000F0CAFA16
:1001900000480047292B0008586000202A4B1968A6
:1001A0000868B0E8F04F80F30988BFF36F8F4FF015
:1001B000000080F3118870470000000006480068C6
:1001C000006880F3088862B661B6BFF34F8FBFF353
:1001D0006F8F00DF00BF00BF08ED00E0DFF80C000C
:1001E000016841F470010160704700BF88ED00E0D4
:1001F000EFF30980BFF36F8F134B1A681EF0100FD7
:1002000008BF20ED108A20E9F04F106008B44FF0CD
:10021000500080F31188BFF34F8FBFF36F8F03F04F
:1002200063FC4FF0000080F3118808BC196808686F
:10023000B0E8F04F1EF0100F08BFB0EC108A80F34A
:100240000988BFF36F8F704734000020EFF30580FB
:10025000704700000648804706480047FEE7FEE773
:10026000FEE7FEE7FEE7FEE7FEE7FEE7FEE7FEE766
:10027000AD170008890100082DE9F05F0546002050
:1002800092469B4688460646814640241BE0284607
:1002900041464746224600F07CF853465A46C01A6B
:1002A000914110D311461846224600F063F82D1AEA
:1002B00067EB01084F4622460120002100F05AF862
:1002C00017EB00094E41201EA4F10104DFDC484673
:1002D00031462A464346BDE8F09F40EA01039B07AA
:1002E00003D009E008C9121F08C0042AFAD203E0AB
:1002F00011F8013B00F8013B521EF9D27047D2B20F
:1003000001E000F8012B491EFBD270470022F6E7FE
:1003100010B513460A4604461946FFF7F0FF20467B
:1003200010BD00F0004230F000400AD0C10D01F5D0
:100330006071C0F3160042EA0151C2084007114340
:10034000704700200146704730B50B46014600203B
:100350002022012409E021FA02F59D4205D303FA87
:1003600002F5491B04FA02F52844151EA2F1010208
:10037000F1DC30BD202A04DB203A00FA02F1002033
:1003800070479140C2F1200320FA03F319439040D3
:100390007047202A04DB203A21FA02F0002170473E
:1003A00021FA02F3D040C2F12002914008431946DD
:1003B00070472DE9FE4F804681EA0300C00F0C46CE
:1003C000009021F0004123F00045B8EB0200A94164
:1003D00005D24046214690461C460B46024623F075
:1003E0000040104347D0270DC7F30A00C3F30A515A
:1003F0000290401A019040286BDAC3F3130040F4D6
:10040000801B0098924620B10023D2EB030A63EBD5
:100410000B0B01985946C0F140025046FFF7AAFF66
:1004200006460D4650465946019A00F08DF910EBEC
:1004300008006141002487EA115284EAE7731A43F5
:1004400040D0009A62B3019A012A4FEA075215DCA4
:10045000001B61EB02014FF0004202EA0752CDE9B6
:100460000042001C41F5801132462B4600F08DF908
:1004700003B0BDE8F08F40462146F9E7001B61EB71
:100480000201001C41F5801300185B412018A2F501
:10049000001747EB030140EAD570B6196D4111E032
:1004A0006D084FEA360645EAC0754FEA0752001B51
:1004B00061EB0201001C41F5801149084FEA300050
:1004C0000019514132462B4603B0BDE8F04F00F011
:1004D0004DB90098012240000023D0EB020263EBEB
:1004E000E073009821464FEAE074B8EB000061EB3E
:1004F0000401E9E783F000435BE781F0004158E73E
:100500002DE9FE4F81EA030404F0004421F000418C
:1005100000944FF0000B23F0004350EA01045ED03A
:1005200052EA03045BD0C3F30A54C1F30A552C44C6
:10053000A4F2F3340194A0FB0254C1F3130141F47B
:100540008011C3F3130343F4801301FB024400FB47
:10055000034E840A970A44EA815447EA8357A4FB6E
:10056000076802958D0A05FB07854FEA932C04FB6B
:100570000C542705029D4FEA065847EA1637B5EB9B
:1005800008056EEB070C870E920E47EA811742EAC8
:100590008312A7FB0201B6EB0B0164EB00042B0DE9
:1005A00043EA0C335E1844EB1C50DA465146E7FB35
:1005B0000201C5F313044FEA0B3343EA14534FEA25
:1005C0000432019C43EA0603A4F10C040294009C4B
:1005D000CDE900B400F0D9F803B0BDE8F08F0020F9
:1005E0000146F9E72DE9F04D81EA030404F0004BE0
:1005F00021F0004514464FF0000A23F0004150EA74
:10060000050220D054EA01021DD0C5F30A57024664
:10061000C5F31303C1F31300C1F30A5640F4801568
:1006200043F48013A7EB0608101BD64608F2FD38EA
:1006300073EB050002D308F1010801E092185B4159
:10064000B8F1000F03DA00200146BDE8F08D00206C
:100650004FF48011064684460EE0171B73EB050726
:1006600005D3121B63EB050306434CEA010C490852
:100670004FEA300092185B4150EA0107EDD152EA8F
:10068000030012D082EA040083EA0501084305D082
:10069000101BAB4106D20122002306E000224FF0DE
:1006A000004302E06FF0010253101AEB06004CEB1E
:1006B000085110EB0A0041EB0B01BDE8F04D00F0D2
:1006C00055B8C1F30A52C1F3130140F2FF3341F4AC
:1006D00080119A4202DA00200146704740F233430B
:1006E0009A42A2F2334202DC5242FFF752BEFFF7B7
:1006F00041BE000030B5041E71F1000404DB4FF070
:100700000044404264EB0101141E73F1000405DB58
:100710001C464FF00043524263EB0403994208BF6A
:10072000904230BD064C074D06E0E06840F0010302
:1007300094E8070098471034AC42F6D3FFF728FD41
:1007400090440008B0440008202A06DBCB17203A6A
:1007500041FA02F043EAE07306E041FA02F3D040C6
:10076000C2F12002914008431946704710B5141E8B
:1007700073F1000408DA401C41F1000192185B415A
:100780001A4301D120F0010010BD2DE9F04D924631
:100790009B4611B1B1FA81F202E0B0FA80F2203248
:1007A0009046FFF7E7FD04460F4640EA0A0041EA9B
:1007B0000B0153465A46084313D0114653EA010031
:1007C00019D0C8F140025046FFF7E3FD05460E463A
:1007D000504659464246FFF7CDFD084305D001205B
:1007E00004E020463946BDE8F08D0020054346EA86
:1007F000E0762C4337430A986305E40AA0EB08002F
:100800000022FD0A44EA47540A3002D5002001467E
:10081000E9E7010510196941DDE908450019694159
:10082000BDE8F04DA2E700BFFEE7000010B50446AA
:100830000CB90E4810BD012C01D10020FAE7022CA2
:1008400001D10020F6E7032C01D10020F2E7042CAF
:1008500001D10020EEE7052C01D10020EAE7CD21EF
:1008600003A000F016F80020E4E70000E0000020FC
:100870002E2E5C484152445F4253505C7372635C5D
:100880006273705F756172745F6669666F2E630074
:10089000704701B9704700BFFEE700000120014921
:1008A0000860704700042742F8B502460B46002551
:1008B000002400200021DEE0012606FA01F51E6872
:1008C00006EA0504AC4275D11E7906F00306012E36
:1008D00004D01E7906F00306022E13D190684F0053
:1008E0000326BE40B0434F00DE68BE4030439060F8
:1008F000506801268E40B0431E79C6F300168E4024
:10090000304350601E7906F00306032E09D0D068EC
:100910004F000326BE40B0434F009E68BE403043A8
:10092000D0601E7906F00306022E13D1CF0802F123
:10093000200656F827004E07F70E0F26BE40B0439C
:100940004F07FF0E1E69BE403043CF0802F120065C
:1009500046F8270010684F000326BE40B0431E79BA
:1009600006F003064F00BE40304310605E6806F09C
:100970008056B6F1805F7DD100BF00260096404EC4
:10098000366846F480463E4F3E603E46366806F482
:100990008046009600BF00BF3A4E8F0856F82700E9
:1009A0008E07370F0F26BE40B043374EB24202D1FA
:1009B000002624E05EE0354EB24201D101261EE061
:1009C000334EB24201D1022619E0324EB24201D179
:1009D000032614E0304EB24201D104260FE02F4E20
:1009E000B24201D105260AE02D4EB24201D10626BF
:1009F00005E02C4EB24201D1072600E008268F0701
:100A00003F0FBE4030431F4E8F0846F82700264E4A
:100A10003068A0435E6806F48036B6F5803F00D1AA
:100A20002043214E3060361D3068A0435E6806F4D6
:100A30000036B6F5003F00D120431B4E361D306016
:100A4000361D3068A0435E6806F48016B6F5801F38
:100A500000D12043144E08363060361D3068A04364
:100A60005E6806F40016B6F5001F00D120430E4E56
:100A70000C363060491C1029FFF41EAFF8BD000091
:100A8000443802400838014000000240000402409F
:100A900000080240000C0240001002400014024016
:100AA00000180240001C0240003C01400148006860
:100AB00070470000A000002003480068034909783F
:100AC0000844014908607047A0000020A8000020E9
:100AD00010B50A48006840F40070084908600846EC
:100AE000006840F480600860032000F07FF80F2069
:100AF00000F006F800F02AF8002010BD003C02408B
:100B000070B504460E4800784FF47A71B1FBF0F0EE
:100B10000C490968B1FBF0F5284600F009FC08B162
:100B2000012070BD102C07D200222146501E00F07B
:100B30001EF80548046001E00120F2E70020F0E71C
:100B4000A800002010000020A400002070470146EB
:100B50000846002809DB00F01F0301229A404309E0
:100B60009B0003F1E023C3F8002100BF70472DE98B
:100B7000F05F80460D461646002701F023F9074630
:100B800039462A46334601F00700C0F1070ABAF198
:100B9000040F02D94FF0040A01E0C0F1070AD14660
:100BA00000F1040ABAF1070F02D24FF0000A01E087
:100BB000A0F1030AD4464FF0010A0AFA09FAAAF191
:100BC000010A0AEA020A0AFA0CFA4FF0010B0BFAC0
:100BD0000CFBABF1010B0BEA030B4AEA0B042146B9
:100BE000404601F0F7F8BDE8F09F000000BF00F0BC
:100BF0000702064B19684FF6FF031940044B0B43DD
:100C000043EA0221014B196000BF70470CED00E080
:100C10000000FA0570B504460D460CB9012070BD00
:100C20005848006800F00700A84209D255490D70E5
:100C30000846006800F00700A84201D00120EEE756
:100C4000207800F0020002281DD1207800F0040076
:100C5000042805D14C48006840F4E0504A49086037
:100C6000207800F00800082805D14748006840F4C3
:100C70006040454908604448006820F0F000A168E1
:100C8000084341490860207800F00100A8B360687B
:100C9000012807D13C4808380068C0F34040B8B983
:100CA0000120BCE76068022802D06068032807D1F1
:100CB000354808380068C0F3406048B90120AEE705
:100CC000314808380068C0F3400008B90120A6E7A1
:100CD0002D48006820F00300616808432A49086035
:100CE000FFF7E4FE064609E0FFF7E0FE801B41F255
:100CF0008831884202D9032091E707E02248006842
:100D000000F00C006168B0EB810FEDD11D48006868
:100D100000F00700A84209D91A490D70084600687A
:100D200000F00700A84201D0012078E7207800F009
:100D30000400042807D11448006820F4E050E1685A
:100D4000084311490860207800F00800082808D1FD
:100D50000D48006820F46040216940EAC1000A495A
:100D6000086000F03FF808490968C1F30311074A19
:100D7000515CC8400649086006480068FFF7C0FE9D
:100D800000204CE7003C024008380240484400087C
:100D900010000020A40000200148006870470000F7
:100DA0001000002000B5FFF7F7FF04490968C1F300
:100DB0008221034A515CC84000BD0000083802404F
:100DC0005844000800B5FFF7E7FF04490968C1F37C
:100DD0004231034A515CC84000BD0000083802405F
:100DE000584400082DE9F047002400250026A146BC
:100DF0002548006800F00C0020B1042805D0082820
:100E00003AD105E0DFF8849039E0DFF8849036E0ED
:100E10001D48001F006800F03F041B48001F0068C9
:100E200000F4800078B11A481749091F0968C1F316
:100E30008811A0FB01700146224600233846FFF7C7
:100E40001BFA05460EE011480F49091F0968C1F356
:100E50008811A0FB01700146224600233846FFF7A7
:100E60000BFA05460848001F0068C0F30140401C0B
:100E70004600B5FBF6F902E0DFF8109000BF00BFB6
:100E80004846BDE8F0870000083802400024F4001E
:100E900000127A00F8B504460CB90120F8BD20789C
:100EA00000F00100002874D0F948006800F00C0040
:100EB00004280DD0F648006800F00C00082813D173
:100EC000F348001F006800F48000B0F5800F0BD1DC
:100ED000EF4808380068C0F34040002859D06068E7
:100EE000002856D10120D9E700BF6068B0F5803FE7
:100EF00008D1E7480838006840F48030E4490839F0
:100F000008601EE06068B0F5A02F0DD1E0480838F9
:100F1000006840F48020DE4908390860084600680F
:100F200040F4803008600CE0D9480838006820F4AC
:100F30008030D749083908600846006820F48020CE
:100F4000086000BF606890B1FFF7B0FD054606E09D
:100F5000FFF7ACFD401B642801D903209EE7CC4875
:100F600008380068C0F340400028F1D011E0FFF7D6
:100F70009DFD054606E0FFF799FD401B642801D959
:100F800003208BE7C24808380068C0F340400028BF
:100F9000F1D1207800F0020002285FD1BC4800683F
:100FA00000F00C0058B1BA48006800F00C000828A6
:100FB0001CD1B748001F006800F48000B0B9B448E5
:100FC00008380068C0F3400020B1E068012801D073
:100FD000012063E7AE480838006820F0F800216976
:100FE00040EAC100AA490839086037E0E06800B368
:100FF0000120A8490860FFF759FD054606E0FFF704
:1010000055FD401B022801D9032047E7A0480838B6
:101010000068C0F340000028F1D09D4808380068FF
:1010200020F0F800216940EAC100994908390860B8
:1010300014E0002097490860FFF738FD054606E0F8
:10104000FFF734FD401B022801D9032026E7904812
:1010500008380068C0F340000028F1D1207800F083
:10106000080008282CD16069A8B101208A490860CD
:10107000FFF71CFD054606E0FFF718FD401B0228A0
:1010800001D903200AE782486C300068C0F34000B1
:101090000028F1D014E000207F490860FFF706FD2A
:1010A000054606E0FFF702FD401B022801D9032098
:1010B000F4E677486C300068C0F340000028F1D1B6
:1010C000207800F00400042870D1002770483830E0
:1010D000006800F0805090B900BF002000906C487C
:1010E0003830006840F0805069493831086008465F
:1010F000006800F08050009000BF00BF01276748E3
:10110000006800F48070B0B96448006840F48070F2
:1011100062490860FFF7CAFC054606E0FFF7C6FC17
:10112000401B022801D90320B8E65C48006800F49F
:1011300080700028F2D000BFA068012808D1544870
:101140006830006840F001005149683108601DE0D6
:10115000A06805280DD14E486830006840F00400B2
:101160004B49683108600846006840F0010008609B
:101170000CE047486830006820F0010044496831BD
:1011800008600846006820F00400086000BFA068FE
:10119000A8B1FFF78BFC054609E0FFF787FC401B71
:1011A00041F28831884202D9032077E626E03848A8
:1011B00068300068C0F340000028EED013E0FFF76D
:1011C00075FC054608E0FFF771FC401B41F28831D1
:1011D000884201D9032061E62D4868300068C0F3D9
:1011E00040000028EFD1012F07D12948383000688E
:1011F00020F0805026493831086000BFA0690028DF
:1012000045D02348006800F00C0008285DD0A06994
:10121000022845D100201F490866FFF747FC054614
:1012200006E0FFF743FC401B022801D9032035E606
:10123000174808380068C0F340600028F1D1D4E9AD
:1012400007010843616A40EA81110122A06AC2EBEA
:10125000500041EA00412C20005D41EA00600C4949
:10126000091F086001200B490866FFF71FFC0546AF
:1012700006E0FFF71BFC401B022801D903200DE606
:10128000034808380068C0F340600028F1D049E006
:101290000838024000004742800E4742007000407C
:1012A000002021490866FFF701FC054606E0FFF72C
:1012B000FDFB401B022801D90320EFE51B48006815
:1012C000C0F340600028F2D12CE0A069012800D1D1
:1012D000E4E51648001D0668A069012820D006F440
:1012E0008001E06981421BD106F03F01206A814202
:1012F00016D147F6C0703040616AB0EB811F0FD144
:1013000006F440310122A06AC2EB5000B1EB004F5D
:1013100006D106F070612C20005DB1EB006F01D0AA
:101320000120BBE50020B9E500004742003802403B
:1013300070B504462546681EB0F1807F01D30120B8
:101340000FE0681E4FF0E02148610F214FF0FF30A1
:1013500000F040FD00204FF0E02188610720086187
:10136000002070BD10B504460CB9012010BD94F8E2
:101370003D0028B9002084F83C00204600F025F804
:10138000022084F83D00211D206800F09BFA012016
:1013900084F8460000BF84F83E0001213F2001553B
:1013A000402001554120015500BF00BF012084F8B5
:1013B000420043200155442001554520015500BFFE
:1013C000012084F83D000020D0E77047014691F8E5
:1013D0003D00012801D001207047022081F83D0026
:1013E0001A4B086898421BD00868B0F1804F17D09C
:1013F000174B0868984213D0164B086898420FD0D4
:10140000154B086898420BD0144B0868984207D0D7
:10141000134B0868984203D0124B086898420CD1CD
:101420000868806800F00702062A0CD00868006887
:1014300040F001000B68186005E00868006840F0A3
:1014400001000B6818600020C6E7000000000140A2
:101450000004004000080040000C0040000401406F
:10146000004001400018004010B504460CB90120AE
:1014700010BDA06900B100E000BF94F83D0028B99C
:10148000002084F83C00204600F027F8242084F84F
:101490003D002068C06820F400502168C8602046E4
:1014A00000F07CFA2068006920F49040216808610F
:1014B0002068406920F02A00216848612068C068DF
:1014C00040F400502168C86000202064202084F887
:1014D0003D0084F83E000020CAE7704700BFFEE7E9
:1014E00000B587B000BF002001903348006840F08D
:1014F0000100314908600846006800F001000190D1
:1015000000BF00BF00BF002001900846006840F007
:10151000010008600846006800F00100019000BF6B
:1015200000BF00BF0020019023481430006840F045
:1015300010002149143108600846006800F01000CE
:10154000019000BF00BF48150290022003900120C7
:101550000490032005900720069002A91748FFF782
:10156000A3F94FF4806002900720069002A9134867
:10157000FFF79AF9012200212520FFF7F8FA25202C
:10158000FFF7E5FA0C2300224FF4E1310C4801F09B
:10159000DFF90B48006820F0400009490860084660
:1015A000006820F0200008600846C06840F0200075
:1015B000C86007B000BD00003038024000000240A3
:1015C0000010014000BFFEE77047000000B587B083
:1015D00000BF002001900D48006840F002000B4958
:1015E00008600846006800F00200019000BF00BFDC
:1015F0000120039000200490032005900420029015
:1016000002A90348FFF750F907B000BD3038024087
:101610000004024010B5FFF74FFA02F025FD012843
:1016200001D002F0B5FA0448007800B910BD00F00E
:1016300005F800BFFAE700003000002010B51B4895
:10164000006840B119480068401E1849086010B988
:10165000012017490870002408E004EB4401154AF2
:1016600002EB810001F09EF9601CC4B2042CF4DB93
:1016700011480068401C10490860084600686FF077
:101680000041884202D100200B49086001F05FF957
:101690000A480078401CC0B2084908700A2803DBD9
:1016A0000020087001F052F910BD00002400002055
:1016B00028000020B00000202C0000203100002075
:1016C00000B593B000BF002001903048006840F0A2
:1016D00080502E4908600846006800F08050019054
:1016E00000BF00BF00BF002001902948006840F4FF
:1016F0008040274908600846006800F48040019057
:1017000000BF00BF01200290000403900220089057
:101710004105099108210A914FF4A8710B9102210A
:101720000C9107210D9102A8FFF7B4FB18B15121CC
:1017300018A0FFF7AEF80F200E9002200F900020A7
:1017400010904FF4A05011904FF48050129005214A
:101750000EA8FFF75FFA18B164210EA0FFF799F801
:1017600000BF002001900948001D006840F480403F
:101770000649091D08600846006800F48040019091
:1017800000BF00BFFFF78AF813B000BD4038024029
:10179000007000402E2E5C484152445F4253505C22
:1017A0007372635C6273702E6300000014480068FB
:1017B00040F47000124908601248006840F00100CF
:1017C0001049086000200F49083108600D48006882
:1017D0000D4908400B4908600C48091D0860081FA6
:1017E000006820F48020091F0860002005490C31A2
:1017F00008604FF0006002498039086070470000BF
:1018000088ED00E000380240FFFFF6FE10300024B3
:1018100070B5002500264FF08044206900F00205D5
:10182000E06800F002065DB156B14FF6FD70206130
:10183000E0684FF6FD710840E0601E480068804790
:10184000206900F00405E06800F004065DB156B1BF
:101850004FF6FB702061E0684FF6FB710840E060D6
:10186000154800688047206900F00805E06800F02E
:1018700008065DB156B14FF6F7702061E0684FF68B
:10188000F7710840E0600D4800688047206900F06B
:101890001005E06800F010065DB156B14FF6EF702C
:1018A0002061E0684FF6EF710840E060044800688E
:1018B000804770BD14000020180000201C0000208C
:1018C0002000002010B50268294B98420ED0B0F1DC
:1018D000804F0BD0274B984208D0274B984205D019
:1018E000264B984202D0264B984203D122F0700238
:1018F0004B681A431E4B984220D0B0F1804F1DD048
:101900001C4B98421AD01C4B984217D01B4B984244
:1019100014D01B4B984211D01A4B98420ED01A4B40
:1019200098420BD0194B984208D0194B984205D0D9
:10193000184B984202D0184B984203D122F44072BF
:10194000CB681A4322F080034C6943EA0402026028
:101950008B68C3620B688362054B984202D0084BC8
:10196000984201D10B6903630123436110BD00005C
:10197000000001400004004000080040000C00404E
:101980000004014000400140004401400048014083
:1019900000180040001C0040002000402DE9F84FD6
:1019A00004462068006920F44050E168084321683B
:1019B00008612169A068084361690843E169084337
:1019C00000902068C06849F20C6188430099084380
:1019D0002168C8602068406920F44070A16908430C
:1019E0002168486176492068884203D0754920689B
:1019F000884203D1FFF7E6F9814602E0FFF7D2F90A
:101A00008146E069B0F5004F6CD102206168A0FB0F
:101A1000015003461920A9FB007001462A463846AA
:101A2000FEF72AFC6421B0FBF1F04FEA001A022015
:101A30006168A0FB01510B461920A9FB00712A46E1
:101A40003846FEF719FC834602206168A0FB01506E
:101A500003461920A9FB00712A463846FEF70CFC04
:101A60006421B0FBF1F000EBC00101EB0010ABEB27
:101A70008000322101EBC0006421B0FBF1F000F0E6
:101A8000F8000AEB400A02206168A0FB01500346FF
:101A90001920A9FB007001462A463846FEF7ECFBE8
:101AA000834602206168A0FB015003461920A9FB70
:101AB00000712A463846FEF7DFFB6421B0FBF1F0E7
:101AC00000EBC00101EB0010ABEB8000322101EB19
:101AD000C0006421B0FBF1F000F007005044216821
:101AE00088606AE004206168A0FB01500346192069
:101AF000A9FB007001462A463846FEF7BDFB824628
:101B000004206168A0FB015003461920A9FB007066
:101B100001462A463846FEF7AFFB6421B0FBF1F0E0
:101B200000EBC00101EB0010AAEB8000322101EBB9
:101B300000106421B0FBF1F000F0F00A04206168AD
:101B4000A0FB017003461920A9FB00513A46284624
:101B5000FEF792FB6421B0FBF1F00AEB001A0420BF
:101B60006168A0FB01510B461920A9FB00712A46B0
:101B70003846FEF781FB834604206168A0FB0150D4
:101B800003461920A9FB007001462A463846FEF795
:101B900073FB6421B0FBF1F000EBC00101EB00101E
:101BA000ABEB8000322101EB00106421B0FBF1F0BF
:101BB00000F00F00504421688860BDE8F88F0000F5
:101BC000001001400014014010B5024800F004F874
:101BD00010BD0000E00000202DE9F041044620681F
:101BE00005682068C6682068D0F8148005F02000D9
:101BF000D8B120684068C7B2E18AA0684754E08A3B
:101C0000401C80B2E082E189884201DB0020E08252
:101C1000608BE189884202DA608B401C6083606AD5
:101C200010B13846616A884700BF05F0800028B3CC
:101C300006F0800010B3A08A60B92068C06820F068
:101C400080002168C8602068C06840F040002168BA
:101C5000C86013E0012084F82800618A6068405C55
:101C600021684860608A401C80B26082A1898842F5
:101C700001DB00206082A08A401EA08205F04000A7
:101C800018B306F0400000B3A08A68B92068C068A5
:101C900020F040002168C860206A08B1206A8047AF
:101CA000002084F8280010E0618A6068405C2168A8
:101CB0004860608A401C80B26082A189884201DB52
:101CC00000206082A08A401EA082BDE8F081F8B5A5
:101CD00004460F461646002539E01EE0012000F0BC
:101CE0009FF8A08A0090002000F09AF8A089BDF823
:101CF0000010884200DD11E0A089BDF80010884284
:101D00000AD12068C06800F0800028B92068C06847
:101D100040F080002168C86000BFDFE700BF785D49
:101D2000228A61688854012000F07AF8208A401CD9
:101D300080B22082A189884201DB00202082A08A13
:101D4000401CA082002000F06BF8681C85B2B542F0
:101D5000C3DB2068C06840F080002168C860F8BD1F
:101D60000B480C4908600C4848600C4888604FF4E8
:101D700080608881C881002008824882C8820883E8
:101D800048838882C8610862486281F828007047E9
:101D900000100140E00000200C0100200C05002094
:101DA00000BFFEE70FB4054B10B503A9044A029823
:101DB00000F0FCF810BC5DF814FB0000F92A0008E4
:101DC000AC00002002480068C0F302207047000009
:101DD0000CED00E010B5002804DB0A07130E054ADD
:101DE000135406E00A07140E034A00F00F031B1FEA
:101DF000D45410BD00E400E018ED00E002E008C893
:101E0000121F08C1002AFAD170477047002001E074
:101E100001C1121F002AFBD1704780F31088704760
:101E200080F31088704700002DE9FF5F82B0002129
:101E3000DDE90430020DDDF840B0034318D044F66C
:101E40001050A2F2FF3242431514119801281FD0FE
:101E5000A5EB0B00401C5FEA000A4FF000064E4F56
:101E6000DFF83891B046504615D5CAF1000413E0AA
:101E7000119801244AA3012801D16FEA0B010298AD
:101E8000119AC0E90031C0E9024206B0BDE8F09FF6
:101E9000CBF10000DFE704460021404A491842EB3D
:101EA0000450CDE9001012E0E00707D032463B466F
:101EB00040464946FEF724FB8046894632463B466B
:101EC00010461946FEF71CFB06460F466410002C10
:101ED000EAD1DDE90401DDE90023BAF1000F06DAF9
:101EE000FEF70EFB42464B46FEF70AFB05E0FEF707
:101EF00079FB42464B46FEF775FB04460E46002230
:101F0000284BFEF7F7FB03D84FF0FF30014607E000
:101F10000022254B20463146FEF74BFAFEF7D1FB57
:101F2000102409E0002C0ADB0A220023FEF7A4F9A2
:101F3000039B30321A55641E50EA0102F2D1641C30
:101F4000039AC4F111031444119A012A03D0012207
:101F500008430DD10AE0084304D000204FF0110BD4
:101F6000119072E7A3EB0B056D1E0DE05B4504DDE0
:101F70004FF0000205F1010504E003DA4FF0000222
:101F8000A5F10105002AECD002981199C0E90231AF
:101F9000C0E9004579E70000000014400000F03F70
:101FA000300000000000F0430000E03F2DE9FF4F4B
:101FB00095B09B468946064600250FE2252877D135
:101FC00000242746F84A0121059400E0044316F84E
:101FD000013F203B01FA03F01042F7D130782A2864
:101FE00011D06FF02F033078A0F13002092A16D8F3
:101FF000059A44F0020402EB820203EB4202104411
:10200000761C0590EFE759F8042B0592002A03DAB5
:10201000504244F40054059044F00204761C307899
:102020002E2816D116F8010F44F004042A280DD0EA
:102030006FF02F023078A0F13003092B09D807EB9D
:10204000870302EB4303C718761CF3E759F8047BB8
:10205000761C30786C280FD006DC4C2817D0682806
:102060000DD06A2814D104E0742810D07A280FD13A
:102070000DE044F400140AE044F4801401E044F458
:1020800040147278824202D104F58014761C761CCA
:10209000307866280BD013DC582877D009DC00286C
:1020A00075D04528F6D04628F4D047281AD19DE1AE
:1020B00018E0632835D0642879D0652812D195E1DD
:1020C000702873D008DC6728F1D069286FD06E289B
:1020D0000DD06F2806D1B5E073282CD0752875D0A7
:1020E000782874D05A46179990476D1C75E1C4F34F
:1020F0000250022809D003280DD0D9F80010042876
:102100000DD00D6009F1040967E1D9F80010EA1754
:10211000C1E90052F6E7D9F800100D80F2E70D7022
:10212000F0E719F8041B8DF8001000208DF801006D
:10213000EA46012003E059F804AB4FF0FF30610795
:102140004FF0000102D40DE008F101018846B942C8
:102150000FDA8045F8DB1AF808100029F4D108E0FE
:1021600008F1010188468142FADB1AF808100029BB
:10217000F6D105985B46A0EB080721463846179A2A
:1021800000F094FA284400EB080507E04DE029E14F
:102190000DE01AF8010B5A4617999047B8F101085B
:1021A000F7D25B4621463846179A13E142E00A22ED
:1021B0000092C4F302524FF0000A022A08D059F8E4
:1021C00004CB032A4FEAEC710AD00DE029E02AE0A3
:1021D00009F1070121F00702F2E802C1914609E086
:1021E0000FFA8CFC4FEAEC71042A03D14FFA8CFCF5
:1021F0004FEAEC71002907DA0A460021DCF1000CF5
:1022000061EB02012D2202E0220504D52B228DF87C
:102210000420012203E0E20701D02022F7E79046E4
:1022200059E00A2102E010220DE010214FF0000ACF
:1022300000910BE010224FF0000A44F0040408273C
:10224000009203E008224FF0000A0092C4F3025209
:10225000022A05D059F804CB0021032A08D009E04E
:1022600009F1070121F00702F2E802C1914605E0F9
:102270001FFA8CFC042A01D10CF0FF0C4FF000086F
:10228000220728D5702806D0009B83F0100353EA5C
:102290000A0305D00EE040228DF80420012208E058
:1022A0005CEA010206D030228DF804208DF805008A
:1022B00002229046009B83F0080353EA0A030AD1E6
:1022C0005CEA010201D1620705D530228DF80420B5
:1022D0004FF001087F1E582804D034A003900EA8A8
:1022E00002900DE036A0F9E753466046009AFDF7EC
:1022F000C3FF84460398825C0298401E02900270DD
:102300005CEA0100F0D1029806A9081A00F1200A3F
:10231000600702D524F4803400E00127574502DD30
:10232000A7EB0A0000E0002000EB0A0100900598EE
:102330004144401A0590E00306D45B462146179AB3
:10234000059800F0B3F90544002706E001A85A46B5
:10235000C05D179990476D1C7F1C4745F6DBE00375
:102360000CD55B462146179A059800F09FF9054465
:1023700004E030205A46179990476D1C0099481E7A
:1023800000900029F5DC08E0029802995A4600788E
:10239000491C0291179990476D1CBAF10001AAF1EE
:1023A000010AF1DC65E10000092801003031323317
:1023B0003435363738396162636465660000000081
:1023C000303132333435363738394142434445466B
:1023D0000000000000F058F90544761C3078002811
:1023E0007FF4ECAD19B02846BDE8F08F620700D449
:1023F000062709F1070222F0070CFCE80223E14658
:1024000003F000485FEA080C02D00FF2702C0DE0D8
:102410005FEA045C02D50FF2682C07E05FEAC47C37
:1024200002D00FF2602C01E0AFF2700C4FF0FF38D9
:1024300023F00043CDF850C065280CD006DC4528B9
:1024400009D046281DD047283DD13DE0662818D048
:1024500067287ED138E00021112F01DB112000E038
:10246000781CCDE9000106A90EA8FFF7DDFCDDE927
:102470000F010E9A03910021009207F1010A0491C5
:102480004DE04FF000400097CDE9011006A90EA8DD
:10249000FFF7CAFCDDE90F0203920E9B119900229F
:1024A000DDF80CA00093049211B9791C00EB010A2D
:1024B000B7EB0A0004D4C0F1FF3007F1010A049021
:1024C000AAEB0700019044E0012F00DA0127002168
:1024D000112F01DD112000E03846CDE9000106A9E9
:1024E0000EA8FFF7A1FCDDE90F010E9A0391002170
:1024F00004910092BA4621070CD40399514500DAA1
:102500008A46BAF1010F05DD009AAAF10101515C7A
:10251000302908D0B84202DA10F1040F06DA01219E
:10252000CDE9011015E0AAF10101E9E7002805DC79
:10253000049901440491AAEB000102E0411C5145B9
:1025400000DD8A460499401A401C01904FF000407B
:102550000290200704D40198504501DBCDF8048097
:1025600000208DF84F0002980DF14F07B0F1004F99
:1025700025D02B200E9002984FF0020800280CDA8C
:10258000404202902D200E9007E00A210298FDF7AC
:10259000DBFE3031029007F8011DB8F10001A8F10F
:1025A0000108F2DC02980028EFD1791E0E9808701D
:1025B000307800F0200040F0450007F8020D12A826
:1025C000C01B00F107081498007800B1012000EB4F
:1025D0000A01019801EBE07105984144401A401E40
:1025E0000590E00306D45B462146179A059800F053
:1025F0005DF805441498007818B15A461799904729
:102600006D1CE00324D55B462146179A059800F01F
:102610004DF805441CE00498002807DBDDE90301C0
:10262000884203DD0098405C179901E0179930203B
:102630005A469047049805F10105401C0490019802
:10264000401E019004D12E205A46179990476D1CC8
:10265000BAF10001AAF1010ADDDC05E017F8010B6F
:102660005A46179990476D1CB8F10001A8F101086E
:10267000F4DC5B462146179A0598ABE62D00000076
:102680002B000000200000002DE9F0410446002549
:102690001E461746880404D405E039462020B0477A
:1026A0006D1C641EF9D52846BDE8F0812DE9F04186
:1026B000044600251E469046C80301D5302700E099
:1026C0002027880404D505E041463846B0476D1CF4
:1026D000641EF9D52846BDE8F081000001460429B2
:1026E00001DB0020704701EB4100084A02EB80004B
:1026F0004078012808D1002001EB4102034B03EB95
:10270000820250700120EDE70020EBE7B0000020CE
:1027100010B5FEF7DDF9FEF7D3FF00F097F800F0F3
:10272000E9F800F061F810BDF0B593B0482101A8B8
:10273000FDF7ECFD4FF0804500BF002000901F48E2
:10274000006840F001001D4908600846006800F07C
:102750000100009000BF00BF1948006847081948F1
:10276000B7FBF0F0401E86B2B5F1804F02D016489C
:10277000854202D14FF0FF3401E04FF6FF7401951E
:1027800002960494002105910391069180210791FE
:1027900001A8FEF7E7FD20B14FF403710BA0FEF78F
:1027A00078F8022200211C20FEF7E1F91C20FEF738
:1027B000CEF901A8FEF70AFE13B0F0BD4038024082
:1027C0001000002040420F00000C00402E2E5C48FC
:1027D0004152445F4253505C7372635C6273705F3A
:1027E00074696D65722E630000B587B000BF00206C
:1027F00001901448006840F0200012490860084623
:10280000006800F02000019000BF00BF012000F030
:1028100079F8022000F076F801200390002004905F
:10282000022005900002029002A90748FEF73CF83A
:102830004FF48060029002A90348FEF735F807B014
:1028400000BD0000303802400014024070B5002482
:1028500016E0002004EB4401214A02EB81014860AC
:1028600004EB440102EB8101886004EB440102EBBC
:102870008101487004EB440102F82100601CC4B2DD
:10288000042CE6DB174800684FF47A72B0FBF2F1D3
:10289000481EB0F1807F00D31BE0481E4FF0E022BD
:1028A000506150170F22002804DB13071D0E0E4B3A
:1028B0001D5406E013071E0E0C4B00F00F052D1FD4
:1028C0005E5500BF00204FF0E022906107201061AC
:1028D00000BF012006490870FFF726FF70BD000009
:1028E000B00000201000002000E400E018ED00E03F
:1028F0003000002010B5FFF733FAFEF7F1FDFEF7C8
:1029000065FE10BD411EC8B220B94FF40071044AE3
:10291000116004E0012802D18102014A1160704770
:1029200018140240012806D10749096881F4007192
:10293000054A116007E0022805D10349096881F4BE
:102940008061014A1160704714140240704770475B
:10295000F0B591B004460D4617461E460094019509
:10296000002102910391049706910596079168460C
:10297000FEF77AFD20B14FF4287102A0FDF789FF20
:1029800011B0F0BD2E2E5C484152445F4253505C62
:102990007372635C6273705F756172745F6669669F
:1029A0006F2E6300416851B14168491E416031B9E1
:1029B000012141700178012901D18168416070478E
:1029C00070B504460D46042C06DB124A12A119A06C
:1029D000FFF7E8F900BFFEE70120FFF71EFA04EB5E
:1029E00044001C4901EB8000456004EB440001EB0E
:1029F00080008560002004EB4401164A02EB81014F
:102A00004870012004EB440102F821000020FFF788
:102A100004FA70BD6F4400082E2E5C484152445F9A
:102A20004253505C7372635C6273705F74696D656E
:102A3000722E63004572726F723A2066696C65206F
:102A400025732C2066756E6374696F6E202573285C
:102A5000290D0A00B00000202DE9F04105460E4680
:102A600017462846FDF7E2FE04460CB9BDE8F081A2
:102A7000E06908B1E06980473A4631462046FFF7F1
:102A800026F900BFF2E713B50446012201A920464A
:102A9000FFF7E2FF1CBD00002DED048B9FED100A37
:102AA000B0EE408A9FED0F0AF0EE408A17E038EE54
:102AB000280A10EE101A0846FDF733FC41EC190BFA
:102AC00053EC192B08A0FFF76DF99FED050A38EEBE
:102AD000000AB0EE408A4FF4FA7000F0B7FEE6E765
:102AE000CDCCCC3D6F12833A6631202B206632204C
:102AF0003D2025660D0A000070B504460D46E1B282
:102B00000020FFF7C0FF204670BD0CE00020FFF75B
:102B1000E5FD28B10120FFF705FF0220FFF702FFC6
:102B2000052000F093FEF1E71CB5FFF7F1FD40F240
:102B3000EF110020FFF744FF00F0F6FD07480221E7
:102B400000238022CDE9001005A1084801F05CFABD
:102B500000F08AFF00F0FAFD00BFFEE70000002051
:102B600073746172745F7461736B0000D535000813
:102B70002DE9F04105460E461C4807681C480068D0
:102B8000001D00F087FD50B91948006890F82C101E
:102B90000120884017490968814316480160681C74
:102BA00038B936B112480168091D134800F0B0FD6C
:102BB0001AE07C190E4800684460BC4207D20C48F9
:102BC0000168091D0D48006800F088FD0CE0084808
:102BD0000168091D0A48006800F080FD0948006886
:102BE000844201D207480460BDE8F081480000201B
:102BF000340000204C0000201C0C00203C00002071
:102C0000380000206400002010B5044600F08CFD60
:102C100024480068401C234908602348006840B9E4
:102C2000214804600846006801280DD100F0CEF963
:102C30000AE01E48006838B91B480068C06AE16AAB
:102C4000884201D81848046019480068401C184997
:102C5000086008460068606494F82C1001208840E1
:102C600014490968084313490860E16A01EB8101CE
:102C7000114A02EB8100211D00F04AFD00F066FDC3
:102C80000A48006868B108480068C06AE16A88427A
:102C900007D24FF0805009490860BFF34F8FBFF350
:102CA0006F8F10BD44000020340000205000002031
:102CB000600000204C0000204C09002004ED00E0E2
:102CC00010B500F031FD10480068D0B90F4800F091
:102CD000F5FC0F4800F0F2FC0C480E4908600C4867
:102CE0000D49086000221021052000F06BFF064905
:102CF00008600846006820B108A10348006800F099
:102D000069FD00F023FD10BD78000020300C00208C
:102D1000440C00207000002074000020546D72519B
:102D20000000000070B523E000F0D6FE13480068F4
:102D300008B9012000E00020054601F0BBFABDB94A
:102D400000F0F2FC0D48C068C468201D00F0A2FC31
:102D50000B480068401E0A4908600A480068401E87
:102D60000849086000F0F2FC204600F060F800BF5F
:102D7000044800680028D7D170BD0000080C00206E
:102D8000440000204000002070B504460D46206C31
:102D900070B1216CE0680844E0606168E0688842D6
:102DA00001D32068E0602846226CE168FDF795FABF
:102DB00070BD2DE9F04104460F4615464FF000085E
:102DC000A66B206C40B9206860BB606801F0F0F928
:102DD00080460020606025E07DB93946226CA068FD
:102DE000FDF77BFA216CA0680844A060D4E90110CB
:102DF000884217D32068A06014E03946226CE0684E
:102E0000FDF76BFA216CE068401AE0602168E06829
:102E1000884203D2216C6068401AE060022D01D123
:102E200006B1761E701CA0634046BDE8F08110B567
:102E30000446206B00F09AFC204600F097FC10BD81
:102E40000146084A126812680AB9012200E000220D
:102E50000A600A6822B9034A1268D268106800E062
:102E6000002070477000002030B54FF4A043174891
:102E700000F007042CB1C01D20F00700134C041B08
:102E80001B1B0246124C22600024114D6C60D018AE
:102E9000083820F007000F4C206000240D4D2D68ED
:102EA0006C600C4D2D682C601146441A4C60094C26
:102EB00024680C60084D4C682C60084D4C682C60F0
:102EC0004FF00044064D2C6030BD0000580C00202F
:102ED000880000209000002098000020940000202E
:102EE0009C00002000BFFFF71DFF06480068012876
:102EF000F9D94FF0805004490860BFF34F8FBFF3FA
:102F00006F8FF0E74C09002004ED00E02DE9F0415F
:102F100006460D4617469846069C0DB9246000E00B
:102F20002760E66325640121204600F015FF84F840
:102F300050800020A064BDE8F0812DE9F05F81465B
:102F40000F4690469A460A9E0C9C4FEA8801A5229D
:102F5000206BFDF7D4F9A8F10100216B01EB800B88
:102F60002BF0070B002507E0795D04F13400415593
:102F7000785D00B902E06D1C102DF5D300BF002173
:102F800043200155202E00D31F26E662E664002070
:102F90002065201D00F09FFB04F1180000F09BFB52
:102FA0002461C6F12000A06164620020606584F89D
:102FB000580052464946584600F0F6FA20600B98F1
:102FC00008B10B980460BDE8F09F000010B5002424
:102FD00007E004EB84010F4A02EB810000F06EFB76
:102FE000641C202CF5D30C4800F068FB0B4800F063
:102FF00065FB0B4800F062FB0A4800F05FFB0A48E3
:1030000000F05CFB0448094908600448084908606E
:1030100010BD00004C090020CC0B0020E00B00206C
:10302000F40B0020080C00201C0C002038000020AD
:103030003C00002010B50146164800E00068036817
:103040008B42FBD30246436813448B4204D143684E
:103050004C682344436001460A464B6813440468A5
:10306000A34211D10C4C03682468A34208D04B68DA
:103070000468646823444B6003681B680B6005E0C8
:10308000054B1B680B6001E003680B60884200D0B1
:10309000016010BD88000020900000202DE9F04163
:1030A00004460D4616461F464FF000086560246131
:1030B000B5420CD8F01BA169884202D34FF0010839
:1030C00011E0211D0948006800F008FB0BE0BE423A
:1030D00004D2BD4202D34FF0010804E0211D044890
:1030E000006800F0FBFA4046BDE8F0817400002063
:1030F0007000002070B5054600F016FBA86B08B9FB
:10310000012400E0002400F021FB204670BD70B5D2
:10311000054600F009FBA86BE96B884201D1012448
:1031200000E0002400F012FB204670BD2DE9F341C1
:103130000D460098846C0027A06BE16B88421BD27F
:1031400094F945602A4669462046FFF732FE074655
:10315000701C60B9606A08B9012000E0002050B915
:1031600004F1240001F066F828B1012703E0701C87
:1031700040B284F8450000BF3846BDE8FC8100003D
:10318000F8B505460E4610480068C068C468201DA2
:1031900000F080FAE069012811D1A06941192B469D
:1031A00032462046FFF77AFF48B1002003462A4600
:1031B00001460090204601F011F9074600BF204665
:1031C000616A8847F8BD000070000020F0B587B044
:1031D00056E00398002805DA04AED6E90020B1686D
:1031E000904700BF039800284ADB059C606908B936
:1031F000012000E0002010B9201D00F04BFA02A8C9
:1032000000F0A0F8054603980A2837D2DFE800F05E
:103210000905072527320608262800BF00BF00BF82
:1032200000BF0498A269811803462A462046FFF78A
:1032300035FF88B12046616A8847E06901280BD1D3
:10324000002000900498A1694218002319462046E6
:1032500001F0C4F8074600BF11E000BF0FE000BF57
:103260000498A061A06941192B462A462046FFF721
:1032700015FF04E0204600F079FA00E000BF00BF2F
:1032800000231A4603A90448006800F0B7FC002890
:103290009FD107B0F0BD000078000020F8B50546CA
:1032A0000C4600F019FC684600F04CF80646009801
:1032B00020BB44B9B54206D800F0FCFF3146284691
:1032C000FFF75EFF1CE03CB10E480068006808B9DB
:1032D000012000E000200446A91B22460A4800689D
:1032E00000F08EFA00F0E6FF50B94FF08050074929
:1032F0000860BFF34F8FBFF36F8F01E000F0DAFF7C
:10330000F8BD0000740000207800002004ED00E00B
:103310000A490968096809B9012100E0002121B1C1
:103320004FF0FF31064A116006E004490968C96898
:10333000C868034A416811607047000038000020E7
:103340006400002070B5044600F09EFE0546074864
:103350000068854204D200F00BF80120206001E0F3
:103360000020206001480560284670BD80000020D4
:103370002DE9F84326E01D480068C06805681B4831
:103380000068C068C468201D00F084F92046616AA6
:103390008847E069012815D1A0694619AE4207D9CE
:1033A00066602461211D1148006800F097F909E06A
:1033B000002003462A4601460090204601F00EF800
:1033C000804600BF09480068006808B9012000E095
:1033D00000200028CFD00548076805480068034949
:1033E000086003480760BDE8F88300007000002013
:1033F0007400002000BF502080F31188BFF34F8F6E
:10340000BFF36F8F00BF00BFFEE708B500BF68467F
:10341000FFF716FD044620460099FFF73FFFFFF730
:10342000D5FEF4E770B5044600F07EF994F94550F6
:103430001AE0A06C38B100212046FFF777FE88B172
:1034400000F084FA0EE0606A08B9012000E0002074
:1034500038B904F1240000F0EDFE18B100F076FA5E
:1034600000E003E0681E45B2002DE2DC00BFFF2053
:1034700084F8450000F06AF900F056F994F94450D8
:1034800010E0206908B9012000E0002048B904F1EB
:10349000100000F0CFFE08B100F058FA681E45B2E7
:1034A00000E001E0002DECDC00BFFF2084F84400C8
:1034B00000F04CF970BD00002DE9F04105464FF0D9
:1034C000000800F009FB2B48006808B9FFF7CCFCA6
:1034D000294800682840002847D145B1083505F043
:1034E000070020B105F00700C0F108000544002DD9
:1034F0003BD022480068854237D8214E30460468C8
:1035000001E0264624686068A84202D220680028AC
:10351000F7D118480068844227D0306800F10808C5
:10352000206830606068401B102807D96719606800
:10353000401B786065603846FFF77CFD0F49606886
:103540000968081A0D490860084600680D490968AD
:10355000884203D2094800680A4908600649606841
:103560000968084360600020206000F0A3FE404628
:10357000BDE8F081900000209C0000209400002015
:1035800088000020980000200648006830B10549F6
:10359000096801F15000096D491C0160014800688B
:1035A0007047000034000020001F4FF0807303605C
:1035B000001F21F001030360001F054B0360143856
:1035C0000260001F6FF002030360203870470000A4
:1035D000F53300081CB5044600F0A6F81248032194
:1035E00000238022CDE9001010A1134800F00CFD4B
:1035F0001248042100238A01CDE9001010A11348CC
:1036000000F002FD1248052100234FF48072CDE93D
:10361000001010A1124800F0F7FC002000F030F973
:1036200000F094F81CBD0000040000206C65645F8D
:103630007461736B000000000B2B00080800002071
:10364000756172745F7461736B0000006536000809
:103650000C000020666C6F61745F7461736B000016
:10366000992A000806E004A0FEF79CFB4FF47A704C
:1036700000F0ECF8F7E70000756172745F74617335
:103680006B2069732072756E696E672E2E2E2E0D5B
:103690000A00000001460A69D1E901309860D1E9C9
:1036A000010358605068884201D18868506000204A
:1036B00008611068401E10601068704700F1080132
:1036C00041604FF0FF31816000F10801C16001618C
:1036D00000210160704700210161704710B502466A
:1036E0000B685C1C0CB9106907E002F1080000E0EF
:1036F0004068446824689C42FAD944684C604C682D
:10370000A160886041600A611468641C146010BD87
:1037100042684A6093688B60936859609160086161
:1037200003685B1C0360704700BF502080F3118862
:10373000BFF34F8FBFF36F8F00BF03480068401C7B
:1037400001490860704700008400002006480068B6
:10375000401E054908600846006820B9002080F333
:10376000118800BF00BF70478400002070B5064676
:103770003546D6B1083D2C460C49606809680840BA
:1037800098B1206888B90949606809688843606011
:1037900000F0A2F906496068096808440449086015
:1037A0002046FFF747FC00F085FD70BD9C0000201F
:1037B00094000020064800684FF47A71B0FBF1F0E5
:1037C000401E4FF0E021486107200861704700006B
:1037D00010000020024600200BE0084B53F8303068
:1037E00033B9064B43F8301003EBC0035A6002E0D4
:1037F000401C0828F1D300BF704700000C090020CE
:103800002DE9F04105460E4617462C46FFF78CFF82
:1038100094F94400401C10B9002084F8440094F945
:103820004500401C10B9002084F84500FFF78EFFCA
:10383000A06B28B93A46314604F1240000F09CF808
:103840002046FFF7EFFDBDE8F081000070B50446AB
:10385000002544B100F040F900212046FFF788F927
:1038600000F028FD05463DB94FF08050034908603F
:10387000BFF34F8FBFF36F8F70BD000004ED00E00A
:1038800070B50546FFF750FF15B92748006800E0FE
:1038900028460446201DFFF7FDFE78B9E06A00EBDC
:1038A0008000224951F8200040B994F82C100120E2
:1038B00088401F49096881431D480160A06A18B10A
:1038C00004F11800FFF7E6FE1A480068401C194989
:1038D000086015480068844209D1211D1648FFF789
:1038E00017FF16480068401C1449086009E0144896
:1038F0000068401E124908602046FFF798FAFFF75B
:1039000007FDFFF723FF0F48006858B1064800681D
:10391000844207D14FF080500B490860BFF34F8FAE
:10392000BFF36F8F70BD0000340000204C090020F1
:103930004C00002060000020080C00204000002007
:10394000440000205000002004ED00E00120014967
:10395000086070475800002070B505460C460548C1
:10396000016818312846FFF7B9FE01212046FFF70C
:10397000FFF870BD3400002070B506460D461446B1
:103980000648016818313046FFF7C2FE0CB14FF00F
:10399000FF3521462846FFF7EBF870BD34000020C4
:1039A00070B505462C46002D4BD02649E06A0968C3
:1039B000C96A884245D2A06900F0004028B9214870
:1039C0000068C06AC0F12000A061E16A01EB8101DA
:1039D0001D4A02EB81016069884201D1012000E0AB
:1039E000002050B3201DFFF755FE78B9E06A00EBC8
:1039F0008000154951F8200040B994F82C1001209E
:103A00008840124909688143104801600D480068E8
:103A1000C06AE06294F82C10012088400B490968C4
:103A200008430A490860E16A01EB8101064A02EB9A
:103A30008100211DFFF76CFE03E002480068C06AA8
:103A4000E06270BD340000204C0900204C000020D2
:103A50000349096801600349096841607047000033
:103A60005C000020480000201CB5144800210B46D3
:103A70008022CDE9001012A1134800F0C5FA0446D7
:103A8000012C02D100F08AFC0446012C14D100BFA5
:103A9000502080F31188BFF34F8FBFF36F8F00BFAB
:103AA0004FF0FF30094908600120094908600020F3
:103AB0000849086000F048F81CBD000068000020BC
:103AC00049444C4500000000E52E00086400002039
:103AD000500000204800002002480068401C0149B6
:103AE000086070476C0000201248006818B101207F
:103AF000114908601DE000200F4908600F48006868
:103B0000B0FA80F0C0F11F0101EB81020C4B03EB16
:103B1000820042685268426000F1080243689342A2
:103B200002D14268526842604268D268054B1A600E
:103B300000BF70476C000020580000204C0000209F
:103B40004C0900203400002010B50E48006840F4F5
:103B500070000C4908600846006840F0704008603A
:103B6000FFF728FE002008490860FCF737FB0748EC
:103B7000006840F0404005490860FCF71FFB00204A
:103B800010BD000020ED00E08400002034EF00E0D4
:103B900010B500BF502080F31188BFF34F8FBFF3E3
:103BA0006F8F00BF00F076FA18B14FF080500449D3
:103BB000086000BF002080F3118800BF10BD000026
:103BC00004ED00E02DE9F84307460D4690460DB997
:103BD000002601E007FB05F606F15400FFF76CFC38
:103BE000044644B104F1540943464A46294638463E
:103BF0000094FFF78BF92046BDE8F8832DE9FF47D5
:103C000082B0054689461E464FF0000A2C4600BF8A
:103C1000FFF78AFDD4F83880B8F1000F3BD0E76891
:103C200049462046FFF7B0F8DEB9A8F10100A063CD
:103C3000206810B9FFF7A8FC6060206908B901206E
:103C400000E0002008BB04F1100000F0F3FAE0B13E
:103C50004FF080503F490860BFF34F8FBFF36F8F25
:103C600013E0E760606A08B9012000E0002060B955
:103C700004F1240000F0DEFA38B14FF080503549ED
:103C80000860BFF34F8FBFF36F8FFFF75FFD012019
:103C900006B0BDE8F087049818B9FFF757FD00207B
:103CA000F6E7BAF1000F04D16846FFF7D1FE4FF0F6
:103CB000010AFFF74BFDFFF70FFFFFF735FD94F902
:103CC0004400401C10B9002084F8440094F94500D9
:103CD000401C10B9002084F84500FFF737FD04A907
:103CE000684600F063F940BB2046FFF703FAF0B1E5
:103CF000206830B9FFF718FD6068FFF751FEFFF745
:103D000025FD04F124000499FFF726FE2046FFF765
:103D100089FB00F0CFFA00287FF47AAF4FF0805093
:103D20000C490860BFF34F8FBFF36F8F70E72046D9
:103D3000FFF778FB00F0BEFA6AE72046FFF772FB58
:103D400000F0B8FA2046FFF7D5F90028EED00020A1
:103D50009EE7000004ED00E070B505460E462C46D7
:103D6000FFF7E2FCD4E90F12206801FB020060605B
:103D70000020A0632068A060E06B401E226C2168D8
:103D800000FB0210E060FF2084F8440084F8450046
:103D90009EB9206908B9012000E00020A8B904F10B
:103DA000100000F047FA80B14FF0805009490860D8
:103DB000BFF34F8FBFF36F8F07E004F11000FFF7E1
:103DC0007DFC04F12400FFF779FCFFF7BFFC012024
:103DD00070BD000004ED00E02DE9FF4383B007460D
:103DE00088461D464FF000093C4600BFFFF79CFC8B
:103DF000A06BE16B884201D3022D38D12A4641469F
:103E00002046FEF7D6FF0646A06C68B1294620463C
:103E1000FFF78CF928B34FF080503C490860BFF39E
:103E20004F8FBFF36F8F1CE0606A08B9012000E07C
:103E3000002068B904F1240000F0FCF988B14FF0CB
:103E4000805032490860BFF34F8FBFF36F8F08E097
:103E50003EB14FF080502D490860BFF34F8FBFF344
:103E60006F8FFFF773FC012007B0BDE8F083059862
:103E700018B9FFF76BFC0020F6E7B9F1000F04D189
:103E800001A8FFF7E5FD4FF00109FFF75FFCFFF721
:103E900023FEFFF749FC94F94400401C10B90020B0
:103EA00084F8440094F94500401C10B9002084F8BF
:103EB0004500FFF74BFC05A901A800F077F8F0B921
:103EC0002046FFF724F9A0B104F110000599FFF78F
:103ED00043FD2046FFF7A6FA00F0ECF9002885D153
:103EE0004FF0805009490860BFF34F8FBFF36F8FC9
:103EF0007CE72046FFF796FA00F0DCF976E72046EB
:103F0000FFF790FA00F0D6F90020ADE704ED00E0ED
:103F10002DE9F05F06468A4615461F46344600BF27
:103F20005021EFF3118081F31188BFF34F8FBFF35E
:103F30006F8F00BF8146A06BE16B884201D3022FD7
:103F40002BD194F945B03A4651462046FEF731FF51
:103F50000BF10100C8B9A06C40B139462046FFF70B
:103F6000E5F8B8B1B5B10120286013E0606A08B97E
:103F7000012000E0002068B904F1240000F05AF9A3
:103F800040B13DB10120286004E00BF1010040B2D6
:103F900084F845004FF0010801E04FF0000800BF31
:103FA00089F3118800BF4046BDE8F09F70B5044614
:103FB0000D46FFF7B9FB124802682868401C08B993
:103FC000002619E00F4920680968884204D060681B
:103FD000904201D801260FE06068101A29688842D3
:103FE00009D228686168511A401A28602046FFF7F4
:103FF0002FFD002600E00126FFF7A8FB304670BD2C
:10400000480000205C0000202DE9FF4F85B080466D
:1040100089461746DDE912ABB800FFF74DFA0646B0
:1040200056B15C20FFF748FA04460CB1266304E061
:104030003046FFF79BFB00E000247CB10020CDE977
:1040400000ABCDE902403A4649464046089BFEF7A0
:1040500074FF2046FEF7D8FD012501E04FF0FF3543
:10406000284609B0BDE8F08F0549096809B9012063
:1040700005E00449096809B9022000E00020704702
:10408000500000206C0000200149086870470000C3
:10409000480000202DE9F04100273A480068002838
:1040A00063D139480068451C374805608DB93748E9
:1040B000D0F8008036480068344908603448C0F8B9
:1040C000008034480068401C32490860FFF720F93E
:1040D00000BF3148006885423BD300BF2B480068D1
:1040E000006808B9012000E0002020B14FF0FF3047
:1040F000294908602CE025480068C068C4686668E3
:10410000B54202D22448066022E0201DFFF7C2FA21
:10411000A06A18B104F11800FFF7BCFA94F82C104B
:10412000012088401D49096808431C490860E16A6C
:1041300001EB81011A4A02EB8100211DFFF7E8FA29
:104140001849E06A0968C96A8842C7D30127C5E7E8
:1041500000BF14480068C06A00EB8000104951F8A5
:104160002000012800D9012704E00F480068401C06
:104170000D4908600D48006800B101273846BDE8C8
:10418000F08100006C000020480000203800002072
:104190003C0000205C000020640000204C00002057
:1041A0004C0900203400002054000020580000205A
:1041B00070B505462C460026ADB3206D401E206527
:1041C000E16CE06A88422ED0206D60BB201DFFF7B5
:1041D00061FA78B9E06A00EB8000144951F82000D8
:1041E00040B994F82C100120884011490968814396
:1041F0000F480160E06CE062E06AC0F12000A0615D
:1042000094F82C100120884009490968084308499E
:104210000860E16A01EB8101044A02EB8100211D83
:10422000FFF776FA0126304670BD00004C090020E9
:104230004C00002070B50646F068C46804F1180010
:10424000FFF728FA15480068A8B9201DFFF722FAE1
:1042500094F82C100120884011490968084310493E
:104260000860E16A01EB81010E4A02EB8100211D29
:10427000FFF74EFA04E004F118010B48FFF748FA83
:104280000A49E06A0968C96A884204D901250120FF
:104290000749086000E00025284670BD6C0000203A
:1042A0004C0000204C090020F40B002034000020BA
:1042B0005800002070B500240026FFF735FA2E487C
:1042C0000068401E2C4908600846006800284FD14D
:1042D0002A48006800284BD024E02948C068C468F8
:1042E00004F11800FFF7D6F9201DFFF7D3F994F871
:1042F0002C1001208840234909680843214908609F
:10430000E16A01EB8101204A02EB8100211DFFF7E8
:10431000FFF91E49E06A0968C96A884202D3012090
:104320001B4908601648006808B9012000E0002019
:104330000028D2D00CB1FEF7EBFF1648056865B136
:1043400000BFFFF7A7FE10B10120114908606D1EE4
:10435000002DF6D100200F4908600D48006838B1E3
:10436000012630070C490860BFF34F8FBFF36F8FF2
:10437000FFF7ECF9304670BD6C00002044000020CF
:10438000F40B00204C0000204C09002034000020D9
:10439000580000205400002004ED00E01CB500246B
:1043A000FEF78EFC0848006858B108481F2100231A
:1043B0004FF48072CDE9001005A10748FFF724FEF5
:1043C000044620461CBD0000780000207C00002030
:1043D000546D7220537663000B3400082DE9FF47BB
:1043E00005460C4616461F46DDF830804FF00009A2
:1043F0001448006810B3009401960295062C15DA53
:10440000FFF732FE022808D10023424669460D48D4
:104410000068FFF7E1FC814610E000231A46694678
:1044200008480068FFF7D8FC814607E000233A46B9
:10443000694604480068FFF76BFD8146484604B0B2
:10444000BDE8F087780000200000000000000000B8
:10445000010203040607080900000000010203042A
:104460006273705F537461727454696D6572006237
:1044700073705F53746172744175746F54696D65C4
:1044800072006273705F53746F7054696D6572006F
:10449000B044000800000020B0000000FC1D00082F
:1044A00060450008B0000020A85F00000C1E000856
:1044B00000000000000000000000000000000000FC
:1044C0000024F400000000000000000000000000D4
:1044D00000000000000000000000000000000000DC
:1044E00000000000000000000000000000000000CC
:1044F00000000000000000000000000000000000BC
:1045000000000000000000000000000000000000AB
:10451000000000000000000000000000000000009B
:10452000000000000000000000000000000000008B
:1045300000000000AAAAAAAA0000000000000000D3
:10454000000000000000000000000000000000006B
:10455000000000001000000001000000000000004A
:040000050800018965
:00000001FF
